:020000040800F2
:10000000F8FF012405050008CF060408BD06040812
:10001000D1060408DD060408E90604080000000013
:10002000000000000000000000000000F5060408C9
:10003000F706040800000000B5160408ED160408D1
:10004000D1020008D5070408E7070408ED070408F3
:10005000F9950408D1020008690704086F0704082D
:10006000750704087B07040881070408CD3A0408D3
:10007000DD3A0408ED3A0408FD3A04080D3B040893
:100080001D3B04082D3B0408D1020008A5610408AB
:10009000B5610408AD610408BD6104088707040860
:1000A00001080408070804080D08040813080408D8
:1000B000170804081D08040823080408D1020008D2
:1000C000D1020008C3080408C9080408154B040835
:1000D000214B040883080408890804088F080408D1
:1000E000AB070408DB070408000000004D08040803
:1000F000530804086B080408650804083D3B04081D
:10010000D1020008E19E040829080408D102000871
:10011000950804089B0804084108040847080408D7
:100120004D3B04085D3B04086D3B04087D3B04081F
:100130008D3B0408D1020008E1070408D102000841
:1001400000000000000000000000000000000000AF
:100150009D3B0408AD3B0408BD3B0408A10804080E
:10016000D1020008D1020008D1020008D102000823
:1001700005070408F9060408D10200080000000081
:10018000D1020008D1020008A7080408AD0804083D
:100190002D4B0408D1020008D1020008D10200084A
:1001A000D1020008D1020008D102000800000000BE
:1001B000D1020008D1020008D1020008CF080408CB
:1001C000D5080408D102000800000000000000006B
:1001D0000000000000000000D10200080000000044
:1001E000000000000000000000000000000000000F
:1001F0000000000000000000D1020008D102000849
:10020000D1020008D102000800000000D10200085D
:1002100071080408770804087D080408D102000862
:10022000D102000800000000D10200080000000018
:10023000D1020008D102000800000000D10200082D
:10024000D1020008D1020008D1020008D102000842
:10025000D1020008D1020008D1020008D102000832
:10026000D1020008D1020008D1020008D102000822
:10027000D1020008D1020008BF08040800000000F5
:10028000D1020008D1020008D1020008D102000802
:1002900000000000D1020008D102000800000000A8
:1002A00000000000D1020008D1020008B3080408D1
:1002B000B9080408D1020008D1020008D1020008E0
:0C02C000D1020008D1020008D1020008A1
:1002D000FEE70000204AD2F8883043F47003C2F8E9
:1002E00088301E4A136803F00F03062B05D81368E5
:1002F00023F00F0343F007031360194B1A6842F011
:1003000001021A6000221A61164A19680A4013494C
:100310001A600A68120705D50A6822F00F0242F037
:1003200007020A60002210499A61DA611A62996232
:100330000E49D9620E4919635A639963DA631964E5
:100340005A64196821F4802119601A6643F2D202B6
:10035000084B1A60704700BF00ED00E0002000521B
:10036000004402587FEDF6EA000202020000FF019D
:1003700080020101004000522DE9F041CEB0202260
:1003800000215B4C05A82FF0F7FE4C2200210DA8A0
:100390002FF0F2FEB822002120A82FF0EDFEE36836
:1003A00023F00403E36063689F04FCD531F044FF4D
:1003B00042F20203984248D94E4BD3F8F42042F05F
:1003C0000202C3F8F420D3F8F43003F002030193DF
:1003D000019B00230293A36923F44043A361A36913
:1003E00003F440430293029B414A93699E04FCD567
:1003F00021214FF48033052500220D913F210E93DA
:10040000402305916E21012602244FF480681F923B
:100410000DA813961A960A93CDE9185104250321C5
:10042000CDE91023CDE91D52CDE906120822CDE910
:100430001644CDE91B54CDE90823CDE90B8336F0F2
:100440007FFB70B12C483FF087FD00230393A36925
:1004500043F44043A361A36903F440430393039B24
:10046000C2E7C02319274FF48022CDE92A73002365
:10047000CDE920234FF44013CDE9300020A841936B
:10048000CDE92C65CDE92E4837F0D6F808B11B48E8
:10049000D9E7199B3021189A05A87B43B3FBF2F3E7
:1004A000B3FBF1F201FB12321A99003AB3FBF1F1FE
:1004B00018BF012241F03AFA08B11148C3E70D4BC9
:1004C0001A6842F080021A60D3F8F42042F0020267
:1004D000C3F8F420D3F8F43003F002030493049B30
:1004E00031F0B8FE36F024FB4EB0BDE8F08100BF1D
:1004F000004802580044025844BD040856BD040890
:1005000070BD04080446DFF82CD00B490B4A0C4B95
:1005100003E051F8040B42F8040B9A42F9D300208F
:100520000849094A01E041F8040B9142FBD32046F7
:100530003FF068BEF8FF012454FD060800000024C7
:100540005401002454010024B837002440F8044B1F
:1005500040F8045B40F8046B40F8047B40F8048BDF
:1005600040F8049B40F804AB40F804BB40F804CBCF
:1005700040F804DB68467047036830B40D46114606
:100580005A7C03EB82032A461B699C680023A4461D
:1005900030BC604773B51D46C36C044616468DF8E3
:1005A00007101BB1D3E903321B0493619DF8073098
:1005B00053B1A36C0DF107016068D3E903321B044A
:1005C00093610122FFF7D8FF002D08DDA36C3146AF
:1005D0006068D3E9033293612A46FFF7CDFFE36CED
:1005E00013B1D3E90332936102B070BDF0B5134A81
:1005F0000346134E4FF0010E17680022346811466F
:1006000010466FEA040C8B4201EB040503DC0AB1CF
:1006100023443360F0BDACEB0102ED084000013132
:1006200002F007027D5DC0B20EFA02F22A424FF0DC
:10063000010218BF40F00100E5E700BF5C010024A3
:10064000600100242DE9F041002A49BAC0B01546E6
:100650008BB2B8BF02F17F05694614460646ED111C
:1006600000220F46A24201DA802A10D1F5B914F017
:100670007F0209D064423946304604F07F0458BFF7
:1006800062425200FFF778FF40B0BDE8F0810132CE
:1006900021F8023BE6E708F101084FF48072394681
:1006A0003046FFF769FFA845F5DBE0E74FF00008AB
:1006B000F9E7000013B590F8322090F8383090F840
:1006C00040109A4203D92D492D4812F09EF9436BF0
:1006D00053BB038DF02B07D1838DB3F5A07F4AD098
:1006E000F02B32D1274B1FE0AA2B05D1838DB3F518
:1006F000A07F2AD1244B17E0872B04D1838DF02BC8
:1007000023D1224B10E0802B04D1838DA02B08D164
:100710001F4B09E0502B18D1838DA02B15D11D4BF9
:1007200002E0802B11D11C4B02EB820203EB42044E
:1007300013F81230194363884385A388C385E3887F
:1007400080F83030238980F83130438D01AA80F859
:100750004210A0F85630C38D8DF804103621A0F851
:1007600058300023A0F85A30A0F85C300123FFF77E
:1007700011FF02B010BD094BD6E700BF84BD0408CD
:10078000CC4A0508A8000024D000002480000024E2
:10079000580000243000002408000024F800002441
:1007A000C08D17F0E9BA408D17F0E6BA7FB50C6836
:1007B00006460D46B4F8560017F0DEFA0090B4F87D
:1007C000580017F0D9FA022E01901CD9A86814F02D
:1007D000DDF80346B4F85A001BB1B4F85630C01A1D
:1007E000013017F0C9FA0290A86814F0CFF8034658
:1007F000B4F85C001BB1B4F85830C01A013017F0DF
:10080000BBFA03900BE0B4F85A0017F0B5FA029067
:10081000B4F85C0017F0B0FA022E03900FD16868AC
:1008200014F0B4F8638D84F85400A4F85630E38DC6
:10083000A4F858300023A4F85A30A4F85C30694674
:1008400004201BF0BDFC04B070BD000000000000DF
:100850000B462DE9F0478AB0586806AA05A913F09F
:10086000EFFF059B002B40F08F804D494D4812F063
:10087000C3F8069B08AA07A953F8240013F0E0FF69
:10088000079B012BF1D9089B0134186813F026FF50
:10089000089B8046586813F021FF059A0646069883
:1008A00007A9B4FBF2F302FB134308AA50F8230094
:1008B00013F0C6FF079B012BD7D9089B186813F0CC
:1008C0000DFF089B0746586813F008FF054600FB1C
:1008D00008F007FB16004AF003FD02460B46CDE97F
:1008E0000201DDE900014AF0AFFBCDE9000108EBB0
:1008F00007004AF0F5FCDDE902234AF05BFD4BF00E
:1009000009F8824470194AF0EBFCDDE902234AF051
:1009100051FD4AF0FFFF8144059BA342A9D8DDE9C0
:1009200000010022204B4AF045FD02460B46002004
:100930001E494AF069FE04460D4650464AF0D0FC76
:1009400022462B464AF036FD06460F4648464AF0F8
:10095000C7FC22462B464AF02DFD04460D46304684
:1009600039464AF0D7FF17F007FA29460890204683
:100970004AF0D0FF17F000FA08A9099002201BF0F6
:100980001FFC0AB0BDE8F0879FED037B00248DEDCE
:10099000007BA146A246BFE7000000000000000067
:1009A0009ABD0408CC4A0508000008400000F03F4A
:1009B00070B5D1E900600C4613F090FE0546A068C2
:1009C00013F08CFE86F8305086F83100062070BD9A
:1009D000022837B50D680DD1486813F07FFE01235A
:1009E000C4B201AA362128468DF80440FFF7D2FD93
:1009F00085F8424095F8420003B0BDE8304017F05A
:100A0000BBB913B50446084613F068FE40BA02238A
:100A100001AAADF8040037212046FFF7BBFD0620F0
:100A200002B010BDF7B50C46D1E9007013F056FEC8
:100A30000646A06813F052FE0546E06876BA13F049
:100A40004DFE40BA6DBA0623ADF804006A4638463A
:100A50003321ADF80060ADF80250FFF79BFD062092
:100A600003B0F0BD10B50446084613F037FE42420D
:100A700000F00303204602F0030258BF534284F8FB
:100A80003230FFF717FE062010BD2DE9F04F076842
:100A900006462DED028B8FB0B0EE428AF0EE628AF0
:100AA0005BEC10AB8DED001B8DED0A0B8DED0C1B7F
:100AB00097B1B0EE420AF0EE620A00252CF01CFA63
:100AC0008DED020BB0EE480AF0EE680A2EF078FDCC
:100AD0008DED040BAF4204DC0FB0BDEC028BBDE822
:100AE000F08F746852465B4604EB05140135D4E977
:100AF00000014AF0A7FADDE90023CDE90601D4E9B7
:100B000002014AF09FFADDE90623CDE90801DDE99B
:100B100002014AF04FFC80468946DDE90823DDE901
:100B200004014AF047FC02460B46404649464AF05B
:100B300089FA8046894600220023504659464AF0E9
:100B400083FA02460B46404649464AF07DFADDE903
:100B50000623C4E90001DDE904014AF02BFC8046CC
:100B60008946DDE90823DDE902014AF023FC02465B
:100B70000B46404649464AF067FA804689460022BD
:100B80000023DDE900014AF05FFA02460B464046C9
:100B900049464AF059FAC4E902019BE72DE9F04FB2
:100BA0000C4687B001224FF001096946606813F0D6
:100BB000E5FF03A90222A06813F0E0FFE06813F04C
:100BC0008DFD0746206913F089FD0646606913F024
:100BD00085FD0023DDF80080B6B2DDF80CC085B2DB
:100BE000DDF804E019469E4503DC062007B0BDE8A9
:100BF000F08F18F803A00CF10202072409FA04F0A0
:100C0000013194461AEA000F0CBF284630468F4245
:100C10004FEA102B02F8010C02F802BC05DD013C82
:100C20000232601CEAD10133DDE70021FBE72DE948
:100C3000F74F466F8B4651881546F068884230D88A
:100C40007369128893422CD3D6F810E0EF88BE4522
:100C500027D8D6F818C0AC88A44522D39042824643
:100C600001F1010903F1010838BF92467445A9EB6F
:100C70000209A8EB000838BF744667451FFA88F8D8
:100C800028BF6746994294BFCAEB0102CAEB030230
:100C9000A4B20132BFB21FFA89F9520092B2BC422B
:100CA00003D9012003B0BDE8F08F3369F068B5F8CF
:100CB00004C0E31A2988AAEB0000A4EB0C0C013451
:100CC000AAEB010108FB03007368A4B209FB0C1135
:100CD00003EB400001920BEB41012FF009FA019A5E
:100CE000DDE738B50346144608465D6FD5E909329D
:100CF0001919914288BFD41A20B1296A2246194491
:100D00002FF0F6F96B6A204623446B6238BD2DE95B
:100D1000F84316469588128888467488416FA41A4D
:100D20008B6801344F6803FB05205B00640007EB10
:100D30004007A4B21FFA83F9F388AB4202D2012024
:100D4000BDE8F8830135414638462246A0444F4469
:100D5000ADB22FF0CDF9EFE7406F134610B5006844
:100D60000C4619B1BDE8104002F0CEBA0122194676
:100D700002F0DBFA204610BD2DE9F041044688B0B0
:100D800000230F46D1E90180ADF80430C60705D431
:100D900085074FD10268374B9A424BD101AE13F011
:100DA0009DFC8DF80400032C4BD9F868810745D1D0
:100DB0000268314B9A4241D116F014F855EC104BB1
:100DC000F868C20705D4830709D10268294B9A4203
:100DD00005D113F083FC4AF083FA04460D46D8F897
:100DE000048041F6AA61404615F068FA012202A982
:100DF00013F0C4FE41F622614046029F15F05EFAF0
:100E0000012205A913F0BAFE059A002016F8013B4D
:100E1000D3B94AF065FA22462B464AF0CBFA0022B3
:100E2000164B4AF011F94AF075FD16F0A5FF08B00F
:100E3000BDE8F08119F034FE0646B4E70024104DF9
:100E4000BEE700240E4DCAE7203BD9B25F29DDD8AA
:100E50005B009BB2F918FB5C497843EA0123991CBB
:100E6000013309B21BB25156D356CB1A034418B200
:100E7000CCE700BFD4500508D84D05080000E03F7E
:100E80000000F03F08B5036D3BB142F21070D3E9AA
:100E900003321B04936140F0A3FC062008BD08B593
:100EA000036D33B142F21070D3E90332936140F025
:100EB00097FC062008BD0000C36C10B504461BB1AA
:100EC000D3E903321B049361636C13B1D3E903329A
:100ED00093614CF2503040F083FC636C1BB1D3E95A
:100EE00003321B0493614CF2503040F079FC636C88
:100EF00013B1D3E903329361044840F071FCE36C11
:100F000013B1D3E903329361062010BDF04902000A
:100F100008B5002301211A46FFF73CFB024840F0C8
:100F20005FFC062008BD00BFF04902004B682DE9B8
:100F3000F04F5D6889B00C4642F2CA21284615F090
:100F4000BDF9012205A913F019FE059B41F67A713E
:100F50002846009315F0B2F900F00703022B1BD1CD
:100F600003A9C00805F0CFFC0646A06800F00703FF
:100F7000022B15D104A9C00805F0C5FC0446049B4A
:100F80004FF0000904EB030A54450DD3484616F010
:100F9000F3FE09B0BDE8F08F8368C6680393E4E709
:100FA0008368C4680493EAE72046354606F031FAC0
:100FB00083462046002706F047FA039B044606EBCB
:100FC00003084545E0D2284606F023FA019028465A
:100FD00006F03AFA019905467A1C8B4506D1BFB254
:100FE000009BDB5D4B441FFA83F9CDE71746E8E72A
:100FF0004B6807B50093CB8D4A8D034906F0FCF989
:1010000003B05DF804FB00BFA9BD0408F0B595B0BE
:10101000084611461A4606AB00250193524B009331
:101020000E2313F011F8602004F078FD4F4B0446B6
:1010300045630360069B4360BDF81C300385438510
:10104000BDF820308385C385042380F838300D989F
:1010500090B103AA02A9039513F0F2FB02980A23A8
:101060002F4684F83800C0B2584304F057FD60633F
:1010700094F83830AB421FDC94F838200E9B93FB79
:10108000F2F102FB113384F832300F9B1398E363C3
:10109000109B84F840309DF8443084F84130129B16
:1010A000606284F8433008B104F038FD0A9BE060C8
:1010B000002B36D12E480CE0039B04AA05A9CDE9EC
:1010C000047753F825001BF089F9059B052B02D006
:1010D000284812F075FA049B0A2618686E4313F02C
:1010E000FDFA636B01359855049B586813F0F6FAC6
:1010F000636B33445880049B986813F0EFFA636B7A
:1011000033449880049BD86813F0E8FA636B334447
:10111000D880049B186913F0E1FA636B334418819B
:10112000A6E7099808B142F0E5FA60640A9842F02F
:10113000E1FAA0640B9808B142F0DCFAE0640C9884
:1011400008B142F0D7FA228D002320652046A4F88A
:101150005620A28D84F85430A4F85820A4F85A30B0
:10116000A4F85C3015B0F0BDD0BE040818C0040867
:10117000E6BD0408CEBD0408994273B50446BDF827
:10118000180051D8658D9D424ED982424CD8E58DCC
:10119000854249D994F85450BDB1B4F856508D42A7
:1011A000B4F85A5088BFA4F856109D42B4F858506D
:1011B00038BFA4F85A309542B4F85C5088BFA4F800
:1011C0005820854238BFA4F85C0094F83050294478
:1011D0002B440E128DF801108DF80330191294F87B
:1011E00031308DF802101A44034420468DF8006017
:1011F00011128DF805201A128DF807308DF80410A1
:1012000004232A218DF806206A46FFF7C3F9042338
:101210002B2120460DEB0302FFF7BCF900232C2104
:1012200020461A46FFF7B6F902B070BD37B504463E
:10123000084613F053FA0546E28D2046638D013AC5
:10124000013B92B29BB2009200221146FFF794FF3D
:10125000A36CD3E903329361E36C1BB1D3E903328E
:101260001B049361638DA9B2E28D60685A43FFF756
:10127000E9F9E36C13B1D3E903329361062003B0BB
:1012800030BD2DE9F3470C46D1E9005013F026FAA2
:101290000646A06813F022FA0746E06813F01EFA2B
:1012A0008046206913F01AFA8146606913F016FA35
:1012B000698D8246B1422CDDE88DB84229DD18FAED
:1012C00086F419FA87F2013C013AA3B292B2824243
:1012D00094BF009200908B42BAB2284628BF0B46BA
:1012E000B1B2FFF749FFAB6CD3E903329361EB6C0A
:1012F0001BB1D3E903321B04936109FB08F21FFA07
:101300008AF16868FFF79EF9EB6C13B1D3E90332F9
:101310009361062002B0BDE8F087000030B50446B6
:101320008BB0FFF7C9FDE56B002D5DD12046FFF7BF
:10133000EFFD2B462A4611212046FFF72BF95523B6
:1013400004AA3A2120468DF810300123FFF722F934
:1013500042F2107040F044FA94F84130002B40D033
:101360002B462A4621212046FFF714F9002313219A
:1013700020461A46FFF70EF942F2107040F030FA9C
:101380000023204629211A46FFF704F9324840F08D
:1013900027FA2046FFF78EF942F2107040F020FA4B
:1013A0000020049416F0E8FC0590002016F0E4FC00
:1013B0000690608D16F0E0FC0790E08D16F0DCFCE6
:1013C0000890002016F0D8FC04A909900620FFF729
:1013D00058FF236D13B1D3E90332936106200BB09C
:1013E00030BD1A462021BEE72846002501AA6946DD
:1013F00013F026FA009B9D42CBD2019B03AA02A9BF
:1014000053F8250013F01CFA039B012204A9186865
:1014100013F0A4FBF0B12046DDE90423012B117881
:1014200093BF002303F1FF3301321A46FFF7B2F8EE
:1014300042F2107040F0D4F9029B012B0AD9039BB1
:10144000586813F04BF9002804DD4FF47A735843C1
:1014500040F0C6F90135CDE7F04902002DE9F0432F
:101460000D4687B001220E68686803A913F086FB59
:10147000A86813F033F98046E86813F02FF9814625
:10148000286913F02BF90446686913F027F910FA5C
:1014900089F514FA88F31FFA89F2013D0746013BEA
:1014A0001FFA88F1ADB230469BB20095FFF764FE9B
:1014B000B36CD3E903329361F36C1BB1D3E903320C
:1014C0001B0493617C43049B002764009C4228BF5B
:1014D0001C46002C2546B8BF04F1FF052D12AF4273
:1014E00017DB14F0FF020BD0644225EAE57503997F
:1014F000E4B2706801EB052158BF6242FFF73CF887
:10150000F36C13B1D3E903329361062007B0BDE851
:10151000F08303994FF48072706801EB0721013763
:10152000FFF72AF8DBE700002DE9F0430646B1B0EB
:101530000D46DFF8B891D1E9004010F003074BD118
:101540000268604B9A4247D1012203A913F016FBAF
:10155000039B0F970E93049B10935B4BA760C9F8F6
:101560000030A86813F0BAF80746E86813F0B6F838
:10157000042E80463ED9286913F0B0F8064640F69E
:101580001C4004F0CBFAD9F8001002462061002973
:1015900000F08880069B1BB90E9B002B00F0828018
:1015A00006AB11A8009340F61C4301F07BFF002816
:1015B00040F0828006BBBDF86050BDF86230DFF8B5
:1015C00030915D436D00636A23B3AB4226D22A4655
:1015D0003E493F4811F019FA19F062FA3D4901F00D
:1015E00075FE3D4BA060C9F80030002306900E93B5
:1015F0001093B6E70026C2E79DF852509DF853308D
:10160000DFF8F09015FB03F5ADF8BC70ADF8BE80C7
:10161000ED01D8E7284604F081FAE060E3681BB9E1
:101620002E492B4811F0E8F907930022BDF86030ED
:10163000494611A80D94089302F020F9002838D1EA
:1016400036BBBDF862601FFA88F2BDF86030B9B2EF
:10165000013E2046013B16FA88F613FA87F3B6B22C
:101660009BB20096FFF788FDA36CD3E90332936128
:10167000E36C1BB1D3E903321B0493612A46E16892
:101680006068FEF779FFE36C13B1D3E9033293612D
:10169000656A1DB9E06804F069FAE5600025A06894
:1016A000079558B9206904F061FA062031B0BDE809
:1016B000F0830B490B48B5E70B49FBE701F043FE0C
:1016C000A560EFE7385D0508E30C0008EDBD0408F0
:1016D000F04A05083BFA0408590D000805BE040845
:1016E0000ABE0408CC4A050821BE0408540100249F
:1016F0000F0D0008F91600082DE9F74F13888146F1
:1017000054888A46D5881646E41AB2F804B00135E2
:10171000D0F874800134A5EB0B05D8F81C70640078
:10172000D8F80430ADB2A4B2F08858452CD2B9F83C
:101730007AC0B9F8781073886044B28836880B4450
:10174000624480B231449BB292B2009089B2384672
:10175000FFF712FDBB6CD3E903329361FB6C1BB145
:10176000D3E903321B04936105FB04F2D8F804109B
:101770007868FEF701FFFB6C13B1D3E90332936184
:10178000012003B0BDE8F08F5146184622460BF108
:10179000010B2EF0ADFC0346A2441FFA8BFB234441
:1017A000C2E700002DE9F04F8246886897B00D46E9
:1017B000C207D1E9004607D4830740F08C80036854
:1017C000934A934240F092804FF001080DF14B0B89
:1017D00012F084FF8DF84B00E86812F07FFF039051
:1017E000286912F07BFFD6F8049042F2C2210990DA
:1017F000484614F063FD12F071FF41F6826106461F
:10180000484614F05BFD12F069FF41F60A61074695
:10181000484614F053FD12F061FF41F60A7104903E
:10182000484614F04BFD12F059FF41F62261069034
:10183000484614F043FD012213A913F09FF9139BAE
:10184000BAF1050F0C9365D9686912F047FF81461C
:10185000686912F043FFC9F307290302BAF1060FC2
:101860009BB249EA0303059357D0A86912F036FFEB
:101870008146A86912F032FFC9F3072503029BB223
:101880001D43F6B2FFB206FB07F34FEA4309636A52
:101890001BB9484604F042F9E060E368BBB19DF82B
:1018A00010304FEAD60A0A939DF818300B9307FBC5
:1018B0000AF307930BEB08030F93ABB211930F9B43
:1018C0009B452CD1636A13B9E06804F04FF90620F8
:1018D00017B0BDE8F08F00F00703022B17D119F005
:1018E000DFF883462EF082FC804675E700F00702A1
:1018F000022AF4D0474A9342F1D0474A934206D194
:10190000012213A913F03AF9DDE913B864E743485B
:1019100012F036F84FF6FF7305930025B1E71BF878
:10192000013B0A9A9A42CAD80B9A9A42C7D39DF8A9
:1019300010209B1A079A13FB02F3BDF814209BB2E8
:1019400010920D9300231D460D9A02EB030CEAB290
:1019500097421FFA8CFC58D8039A731EBDF80C10DE
:1019600013FA82F3628D9BB29A421CD9BDF82420EF
:10197000501E384480B200902046FFF7FDFBA36C58
:10198000D3E903329361E36C1BB1D3E903321B0447
:1019900093614A46E1686068FEF7EEFDE36C13B1BF
:1019A000D3E903329361039B3344039387E70C9994
:1019B000095C00200E91E16806910899C0F10708C2
:1019C00001EB000E0E99013041FA08F81FFA8EFE65
:1019D000069918F0010F14BFDDF84080DDF844804F
:1019E000082821F81E80E8D1013213FA82F15FFA4B
:1019F00082FE1CFA82F0C900D64580B289B20891F5
:101A0000D5D3534401359BB29EE70022EDE700BFDA
:101A1000D4500508885D0508385D050835BE040802
:101A20002DE9F04F0F46A7B08146C868D1E900689C
:101A300012F054FE0790386912F050FEB9F1050F0C
:101A4000824600F29A8000244FF6FF732546A34693
:101A500003940A93CDE916440494D8F8048041F61F
:101A60005241404614F02AFC12F038FE41F68261E1
:101A7000C3B240460B9314F021FC12F02FFE42F249
:101A80001A01C3B24046069314F018FC12F026FE69
:101A900041F692710F90404614F010FC12F01EFEB9
:101AA00042F2CA21C3B240460C9314F007FC012253
:101AB0001DA913F063F81D9B42F2120140461093DA
:101AC00014F0FCFB012220A913F058F8209B41F6EA
:101AD00032414046059314F0F1FB012223A913F093
:101AE0004DF8A04B239A1A60736A3BB90C9B069A77
:101AF00002FB03F0400004F011F8F060049B4BB1CE
:101B000045B1F06830B1039B294603FB0BF252004C
:101B10002EF0EEFA41F67A71404614F0CFFB00F059
:101B20000703022B40F0818018A9C00804F0EBFEE7
:101B30000990B86800F00703022B7BD119A9C008EF
:101B400004F0E1FE0746199B069AFB181193002347
:101B500008931FFA8AF30E93013BD3181393119B3A
:101B60009F426BD3736A13B9F06803F0FFFF0898C4
:101B700016F002F927B0BDE8F08F786912F0AEFDDB
:101B80000446786912F0AAFDC4F307240302B9F1F0
:101B9000060F9BB244EA03030A9306D100242546AC
:101BA000A3460394CDE9164456E7B869002512F020
:101BB00095FD0446B86912F091FDC4F307240302B1
:101BC000B9F1070F9BB2CDE9165544EA030425D0BD
:101BD00016AA17A9F8691AF001FC179B022B1AD94B
:101BE000169B01221AA9186812F0C8FF169B1A9DAD
:101BF000586812F073FD169B1FFA80FB986812F06C
:101C00006DFD83B20393B9F1080F0BD0386A12F05F
:101C1000BDFE049021E7AB460395F4E7AB46039580
:101C200004951AE70023049317E783681893C368A1
:101C300009937EE78368C768199384E738464FF0B5
:101C4000000805F0E6FB8146384605F0FDFB099AE1
:101C5000189B0746924613449A4580D250461293E9
:101C600005F0D7FB0D90504605F0EEFB0D9982462E
:101C700008F101028945129B40F0A680109B1FFAD3
:101C800088F8394A13F80890002313609DF83C3017
:101C9000022B1CD0032B24D0012B03D1059B13F85E
:101CA00008301360049A0C9B002A08BF4B46A2B26E
:101CB000984612920023BDF828200D92069A9A4267
:101CC00054D903FB08F24FF0000A520034E0059BA0
:101CD00013F8181003EB480898F8013003EB0123C0
:101CE000DFE708EB4808059B03EB080113F8083011
:101CF00048781B04897803EB00230B44D1E715B324
:101D0000584520D803998B421DD80B98CDE9142350
:101D1000FEF76CFCA042DDE9142311BFDDF834C0EE
:101D200003FB0BF005EB400030F81AC0F0680AF135
:101D3000010A20F802C002321FFA8AF04845DED3B9
:101D400001339BB2BAE70B98CDE91423FEF74EFCA2
:101D5000129B00280D9A0CBF9C469446DDE9142383
:101D6000E4E700BF5C01002460010024BDF81C1002
:101D7000728D4B1E43449BB29A4221D9BDF84C2030
:101D8000304600920E9AFFF7F7F9B36CD3E90332AD
:101D90009361F36C1BB1D3E903321B049361069B7F
:101DA000F16803FB08F270685200FEF7E5FBF36C84
:101DB00013B1D3E903329361089B4B449BB2089360
:101DC000079B4B440793CAE6904645E710B5044687
:101DD000084612F0DBFD034684F8410038B10023C9
:101DE00021211A462046FEF7D5FB062010BD0246EB
:101DF0002021F7E710B50446084612F0C7FD034658
:101E000038B1002310211A462046FEF7C3FB0620F6
:101E100010BD02461121F7E72DE9F04F0D468FB0B6
:101E200006468868D1E9004B12F058FC0390E86838
:101E300012F054FC042E04906DD9286912F04EFC67
:101E40000746DBF8048041F68261404614F036FA1A
:101E500012F044FC42F2C2218146404614F02EFAB0
:101E600012F03CFC41F6524183B2064640460593CF
:101E700014F024FA12F032FC42F25201C3B20546C9
:101E80004046069314F01AFA8246DBF8040000225A
:101E900041F632410430CDE9092212F039F9002827
:101EA0003BD04068002838D012F018FC1FFA80FBA5
:101EB00009AA50460AA9B6B212F0C2FC41F62A415C
:101EC00040461FFA89FA14F0F9F901220BA912F021
:101ED00055FE364B0B9A1A6006FB0AF3626A4FEA0C
:101EE00043082AB94046079303F018FE079BE060B9
:101EF0002F4A00211160BBF1000F05D0BB450EDD5C
:101F0000EDB25D437D43156000273D4657451DD02A
:101F100005EB060B16E0002793E78346C8E7254943
:101F2000254810F069FD099B06980793FEF75EFBB4
:101F3000079B00B253F8200012F0D0FBE36823F8AF
:101F4000150001355D45EED10137DFE7BDF80C1016
:101F5000059A4B1E1A4493B2628D9A421CD9BDF861
:101F60001020501E484480B200902046FFF704F92C
:101F7000A36CD3E903329361E36C1BB1D3E9033261
:101F80001B0493614246E1686068FEF7F5FAE36C72
:101F900013B1D3E903329361636A13B9E06803F0C4
:101FA000E5FD06200FB0BDE8F08F00BF5C01002406
:101FB000600100244CBE0408F04A05082DE9F047F2
:101FC0008146B2B00E46DFF88CA1D1E9007010F066
:101FD00003046DD10268544B9A4269D1012202A9CF
:101FE00012F0CCFD029B11941093039B12934F4B64
:101FF000BC60CAF80030B9F1020F67D0B9F1060F22
:1020000040F08F80B06812F069FB0546F06812F06E
:1020100065FB0446306912F061FB8046706912F07E
:102020005DFB064640F61C4003F078FDDAF8001030
:1020300002463861002970D0089B13B9109B002B11
:102040006DD008AB13A8009340F61C4301F02AFAA8
:10205000002844D1B9F1050F9FBF0446BDF86A605E
:10206000BDF868802546CDE90B5434444544013C15
:10207000013D0E9406FB08F40D956400204603F024
:102080004DFDF86038B322464BF6EF612EF074F840
:10209000FB6800222649099313A8BDF868300F9702
:1020A0000A9301F0EBFB0546D8B12249224814E01F
:1020B00018F0F6FC214901F009F9214BB860CAF883
:1020C0000030002308901093129394E70026B04646
:1020D00034463546A6E71B491B4810F08DFC1B49CA
:1020E000E4E7B86810B101F02EF9BD60386903F07B
:1020F0003DFDF968204613F06BF90590404615F058
:102100003BFE0690304615F037FE05A907900320E8
:102110001AF056F832B0BDE8F0870C46E6E71C46E8
:10212000E4E70B4811F02CFC385D0508E30C0008CF
:102130002F0C00080ABE0408CC4A05083BFA040824
:10214000590D000805BE0408F04A050821BE040820
:1021500052BE04085801002470B50C46164612F011
:10216000BDFA0546204612F0B9FA0446304612F090
:10217000B5FA074BC0F3C400E40003EA052304F4F6
:10218000FC641843204380B2400040F0010070BD61
:1021900000F8FFFF7FB590F843600446458DB00717
:1021A00012D0B00706D58D423FDC91FBF5F005FB60
:1021B000101109B2F00707D5E68DB2423FDB92FB62
:1021C000F6F006FB102212B2A9422CDAE08D824210
:1021D00029DA51EA020026D4180A8DF80F3092B29B
:1021E0008BB28DF80E00009220461946FEF7C4FF10
:1021F000A36CD3E903329361E36C1BB1D3E90332DF
:102200001B04936101220DF10E016068FEF7B4F921
:1022100001220DF10F016068FEF7AEF9E36C13B116
:10222000D3E90332936104B070BD0029C2DA91FB97
:10223000F5F005FB10110029BBD02944B9E7002AAD
:10224000C2DA92FBF6F006FB1022002ABBD0324421
:10225000B9E72DE9F7431E4690F84330144605468A
:1022600013F003020F46BDF8288040D100292EDB71
:10227000438D8B422BDDC38DA34228DD002CBEBFD6
:10228000A41926B21446A2199342BCBF1B1B1EB24E
:10229000002E1CDDA2B28BB2511E314489B20091D6
:1022A0001946FEF769FFAB6CD3E903329361EB6C1F
:1022B0001BB1D3E903321B0493613246414668687F
:1022C000FEF7C0F9EB6C13B1D3E90332936103B0AD
:1022D000BDE8F08304EB090209F1010943463946E0
:1022E00012B22846FFF756FF4E45F3DCEFE74FF0FA
:1022F0000009F9E72DE9F04F0E4689B0D1E900A0B9
:1023000012F0ECF90546B06812F0E8F98046F06882
:1023100012F0E4F90446306912F0E0F96FF00103BD
:10232000A2B2C4F10107634386B2504603931FFA79
:1023300088F34FF00008009602935300029901338E
:102340008A1A29B2ADB21BB212B2FFF782FFA045C2
:1023500003DB062009B0BDE8F08F002F04DB039BF0
:10236000013C02331F4403931FFA84F9029B08F1D6
:1023700001085046A3EB0903009615FA88F11FFAED
:1023800088FB1BB209B204934FEA4903049A07EB96
:102390004807013301371BB20593FFF75AFF029B31
:1023A00005EB090150460096A3EB0B0309B21BB2E3
:1023B00006934FEA4B03069A01331BB20793FFF7CC
:1023C00048FFA5EB0B015046009609B2DDE9042356
:1023D000FFF73FFFA5EB09015046009609B2DDE982
:1023E0000623FFF736FFB2E72DE9F3410C46D1E9AA
:1023F000008012F073F90546A06812F06FF90646E6
:10240000E06812F06BF90746206912F067F980B2B4
:102410003BB2009032B2404629B2FFF71AFF0620C5
:1024200002B0BDE8F0812DE9F04F0C4687B0D1E94C
:10243000005012F053F98046A06812F04FF9074699
:10244000E0680FFA88F912F049F90646206912F09F
:1024500045F9C6F101031FFA86FA494602936FF067
:10246000010384B21AFA87F27343284612B2039327
:10247000BBB23FB201932346FFF78CFE019B494656
:102480002846A3EB0A0223461FFA88F912B2FFF787
:1024900081FE1AFA88F123463A4609B22846FFF728
:1024A00079FEA9EB0A014FF0000823463A4609B22B
:1024B0002846FFF76FFEB04503DB062007B0BDE8F6
:1024C000F08F029B002B07DB039B013E023303933B
:1024D000DDE902321344029308F10108029B284609
:1024E000B7B203EB480319FA88FB01330FFA8BFBF1
:1024F00002931FFA88F359460493019B13FA86F25C
:10250000234612B20592FFF745FE049B2846059A22
:10251000A9EB030A23460FFA8AFA5146FFF73AFE5F
:10252000019B59462846DA1B234612B20592FFF753
:1025300031FE2346059A51462846FFF72BFE019BA4
:10254000049A09EB070AA9EB0707284603EB020BDD
:102550000FFA8AFA3FB223460FFA8BFB51465A46CE
:10256000FFF718FE23465A4639462846FFF712FE63
:10257000019B049A51462846A3EB020B23460FFA0F
:102580008BFB5A46FFF706FE23465A463946284635
:10259000FFF700FE8FE7F8B50C46D1E9007012F0A6
:1025A0009DF80546A06812F099F80646E06812F01A
:1025B00095F832B283B2384629B2FFF7EBFD062018
:1025C000F8BD2DE9F7431D4690F8433017460646FF
:1025D00013F003020C46BDF828903FD1002F2DDBED
:1025E000438D8B422ADDC18DB94227DD002CBEBF51
:1025F0002D1914462DB262199342BCBF1B1B1DB28C
:10260000002D1BDDA1B2BAB24B1E00922B449BB22F
:10261000FEF7B2FDB36CD3E903329361F36C1BB1E7
:10262000D3E903321B0493612A4649467068FEF7DA
:1026300009F8F36C13B1D3E90332936103B0BDE839
:10264000F08304EB080108F101084B463A4609B251
:102650003046FFF79FFD4545F3DCEFE74FF00008FC
:10266000F9E70000000000002DE9F04F0D46D1F819
:1026700000A00746002468682DED068BBBB013AAA6
:1026800012A912F0DDF8129BCAF81040002B00F0DE
:102690008780A86812F022F80E90E86812F01EF801
:1026A0000F90286912F01AF8052F064669D9686953
:1026B00014F098FB062FB0EE408AF0EE608A62D0EC
:1026C000A86912F00BF80746E86912F007F804460B
:1026D0001298000103F022FA0546CAF810000028FB
:1026E0005ED04FF00008129B984502934DD33846B8
:1026F00048F0F6FD41EC1A0BCDE91601204648F0F2
:10270000EFFD029B00221493DAF8103041EC190B14
:10271000CDE9180103931593002351EC180B49F0F0
:10272000B1F870B9B0EE482AF0EE682A14A8B0EEFD
:102730004A0AF0EE6A0AB0EE491AF0EE691AFEF79C
:10274000A4F9B3B26FF0004B039C00250D934FF03A
:1027500000430C93CDE904B3029BAB4237DC013B51
:1027600011930C9B5B4575DCDAF8100003F0FEF961
:1027700000230620CAF810303BB0BDEC068BBDE844
:10278000F08F9FED938B2746A2E7139B1AAA16A9F9
:10279000103553F8280012F053F8169B012B03D87C
:1027A0008D498E4810F028F91A9B08F10108186825
:1027B00011F094FF48F094FD1A9B45E90401586814
:1027C00011F08CFF48F08CFD45E902018BE7D4E95C
:1027D0000067049848F084FD02460B4630463946AF
:1027E00049F05AF820B13046394649F093F8049040
:1027F000059848F075FD02460B463046394649F0CB
:1028000069F820B13046394649F084F805905846B9
:1028100048F066FD02460B46D4E902673046394669
:1028200049F03AF820B13046394649F073F883460A
:102830000C9848F055FD02460B463046394649F0A3
:1028400049F820B13046394649F064F80C9001351A
:10285000103481E70025119F039E2C46029BAB425A
:1028600012DC0023651E1AAA02EB8301AB4275DB62
:102870000F9B1AAD002603EB0B073FB2B44200F3E7
:1028800084800BF1010B6CE796ED027B58468DEDD1
:10289000067B48F025FD039B8046894603EB07171E
:1028A00002460B4697ED027BDDE906018DED087BC4
:1028B00048F0F2FF30B140464946DDE9082348F0D0
:1028C000F5FF78B940464946DDE9082349F002F8AA
:1028D00000283DD042464B46DDE9060148F0F0FFB6
:1028E000002835D01F2C37DC631C40464946109326
:1028F0003AAB96ED007B03EB8404DDE906238DED16
:102900000A7B48F09FFB80468946DDE90623DDE926
:10291000080148F097FB02460B464046494648F0FE
:1029200073FE80468946DDE90A23D7E9000148F0B5
:1029300089FB02460B464046494648F03BFDDDE92F
:102940000A2348F081FB48F0E5FF44F8800C109C16
:102950002F461036013581E7214922E708685A1CC5
:1029600051F8046FB0420EDD3AA901EB830141F842
:10297000806C3AA901EB820242F8800C002B3FF4F4
:1029800072AF013B6FE7134670E72A68059B9342DD
:102990007FF777AF6B680499994216DA91425046F7
:1029A000B8BF1146059A29609A4289B2A8BF1A4653
:1029B000C1F101036A6013440E9A11440D9A1BB2CF
:1029C000009209B23A46FFF7FCFD0236083555E79A
:1029D00000000000000000009ABD0408CC4A050871
:1029E00064BE04082DE9F04F85B014461E465B1AFC
:1029F000BDF938708046BDF93C90BA1A002AB8BFBC
:102A00005242002BB8BF5B429A4205DD30463E463B
:102A10000746084621460446B14205DD20463C46AD
:102A20000746084631460646751A8A461FFA89FB4C
:102A3000A8B245F34E050290381BBC42ACBF4FF024
:102A4000FF3701279A4280EAE07C4FF00003ACEBAD
:102A5000E07CCDF80CC029DCB2453DDD002B5ED01A
:102A60001FFA89F240460E92224605B0BDE8F04FAB
:102A7000FFF7A7BD039A01330AF1010AAD1A1BB291
:102A8000AAB22DB2002D0FDA0298012B024415B222
:102A90001AD10A465B4621464046FFF77BFB3C4481
:102AA0000FFA8AF1002324B20FFA8AFAB245E1DD67
:102AB000ABB31FFA89F240460E920A46214605B092
:102AC000BDE8F04FFFF7C5BB0A4640462146CDF8AA
:102AD00000B0FFF7BEFBE2E7039A01330AF1010AF7
:102AE000AD1A1BB2AAB22DB2002D0EDA0298012B3C
:102AF000024415B20CD15B4622464046FFF74AFB22
:102B00003C440FFA8AF1002324B20FFA8AFAA3E7B1
:102B100022464046CDF800B0FFF753FDF0E705B080
:102B2000BDE8F08F000000002DE9F04F0C460E6864
:102B30008046002560682DED068B8FB007AA06A998
:102B400011F07EFE069B3561002B00F08980A068A5
:102B500011F0C4FD0390E06811F0C0FD04902069FD
:102B600011F0BCFDB8F1050F834667D96069830792
:102B700061D102685E4B9A425DD114F033F9B0EE38
:102B8000408AF0EE608AB8F1060F5BD0A06911F0C0
:102B9000A5FD8046E06911F0A1FD054606980001FB
:102BA00002F0BCFF04463061002859D0814600275E
:102BB000DDF818A0BA4547D8404648F091FB41ECF3
:102BC0001A0BCDE90A01284648F08AFB3369002236
:102BD000CDF820A00993002341EC190BCDE90C019D
:102BE00051EC180B48F076FE70B1B0EE482AF0EECA
:102BF000682A08A8B0EE4A0AF0EE6A0AB0EE491A4E
:102C0000F0EE691AFDF741FF4FF00109BDF80C70B5
:102C1000BDF810A00FFA8BFB069B1034994539D3F1
:102C2000306902F0A3FF0023062033610FB0BDEC32
:102C3000068BBDE8F08F9FED2C8BA4E79FED2A8BD0
:102C4000A846ABE70025FBE707980AAA08A909F1FF
:102C5000100950F8270011F0F3FD089A012A03D853
:102C6000244925480FF0C8FE0A9A0137106811F070
:102C700035FD0A9A0590506811F030FD824605989E
:102C800048F02EFB49E90401504648F029FB49E988
:102C900002018DE7D4E9000148F03CFE3B1809F140
:102CA00001091BB254E90201039348F033FE0AEB19
:102CB000000854E9040148F02DFECDF804B03D1899
:102CC0000FFA88F8D4E9020148F024FE50442DB2EE
:102CD000039B00B24246294600903046FFF782FE31
:102CE0009AE700BFAFF30080000000000000000082
:102CF000D84D05089ABD0408CC4A05082DE9F04FC7
:102D00000B6897B007460C460D930023D1E901608C
:102D1000ADF83C30C30705D485075AD10268824B11
:102D20009A4256D111F0DAFC0FAB8DF83C000293B9
:102D3000E06811F0D3FC0546206911F0CFFC052FA7
:102D400008904FD9606911F0C9FC062F07904CD04C
:102D5000A069810741D10268744B9A423DD114F0B9
:102D600041F85BEC10ABA069C20705D4830709D119
:102D700002686D4B9A4205D111F0B0FC48F0B0FAF0
:102D800082468B46746841F6AA612DB2204613F044
:102D900095FA012210A911F0F1FE109B41F6226173
:102DA0002046099313F08AFA012213A911F0E6FED6
:102DB000BDF92030DDF84C80CDE9033501230593C2
:102DC000029A12F8013B0292A3B9062017B0BDE89F
:102DD000F08F17F065FE0290AAE74FF0000ADFF8C7
:102DE00054B1C0E74FF6FF7307934FF0000ADFF8C6
:102DF00044B1C7E7203BDAB25F2AE1D85B00099A09
:102E000009999BB21A44CC5C527844EA022423B25A
:102E100018F903300A93A31C1BB218F903005238A7
:102E200048F05EFA52465B4648F0C4FA0022404B36
:102E300048F00AF948F06EFD83B20C93631C1BB294
:102E400018F90300523848F04BFA52465B4648F0F6
:102E5000B1FA374B002248F0F7F848F05BFD83B237
:102E600006930A9B63B10334049B069A4FF0000952
:102E700024B29B1A0B930FFA89F30A9A9A4207DC41
:102E8000049A0C9B1344069A9B1A1BB2049397E76F
:102E900018F90400A7B2202807F1020424B240D098
:102EA0005238013748F01CFA52465B463FB248F0B0
:102EB00081FA00221E4B48F0C7F848F02BFD064669
:102EC00018F90700523848F00BFA52465B4648F0B2
:102ED00071FA174B002248F0B7F848F01BFD089B29
:102EE0001F18B9F1000F01D0059B3BB10B9B9D1939
:102EF0003BB22DB20393002305930FE00B9B3FB22F
:102F00002946039A1E44BDF91C300D9836B2354649
:102F1000CDE900733346FFF765FD039709F1010919
:102F2000A9E70123E8E700BFD4500508D84D0508FC
:102F30000000E03F0000F03F2DE9F7430C46D1E9E7
:102F4000009011F0CBFB0646A06811F0C7FB0746C6
:102F5000E06811F0C3FB8046206911F0BFFB054615
:102F6000606911F0BBFB2DB200B20FFA88F3009537
:102F700001903AB2484631B2FFF734FD062003B063
:102F8000BDE8F0832DE9F04F0E4685B0D1E9007021
:102F900011F0A4FB0446B06811F0A0FB0546F068F0
:102FA0000FFA84FB11F09AFB824630690FFA85F91B
:102FB00011F094FB8046706911F090FB4A4686B28E
:102FC00059460FFA8AF3384600960293FFF7F9FA4A
:102FD0000FFA88F34A465946384600960393FFF79E
:102FE00038F905EB0802029B59463846013A00962B
:102FF00012B2FFF7E6FA04EB0A013846039B0139E7
:103000004A46009609B2FFF724F9062005B0BDE84C
:10301000F08F2DE9F3410C46D1E9008011F05EFB01
:103020000546A06811F05AFB0646E06811F056FB11
:103030000746206911F052FB80B23BB2009032B2D9
:10304000404629B2FFF7BDFA062002B0BDE8F08184
:1030500037B5CA8905460C4600924B8A098AFEF7A5
:103060008BF8AB6CD3E903329361EB6C1BB1D3E902
:1030700003321B049361A289E96852006868FDF776
:103080007BFAEB6C13B1D3E903329361EB68A36174
:103090000023A38103B030BD2DE9F0430C46C9B035
:1030A0008146D1E9005017F0FBFC0746A06811F0FB
:1030B00015FB8046E06811F011FBB9F1040F0646DC
:1030C0003FD9206911F062FC0346002428468DF8A0
:1030D000183003960794CDE90158CDE9044401F076
:1030E00029F8064601A9286101F0DBFC2349304696
:1030F00001F0D4FC2249384600F0E8F8A86008AB9B
:10310000C4F58072A868191900F0FEF800281ADCCE
:10311000BDF810301BB101A92846FFF799FF6C6A72
:103120001CB9E86802F022FDEC60A86800F00BF919
:10313000304601F00CF8002306202B6149B0BDE8B1
:10314000F0830023C1E7044408A93046224601F079
:1031500019F8011E07DA304601F004F80949024661
:1031600009480FF052FC641A002CC8DD08AB224657
:10317000194418462CF0ECFFC1E700BF8D31000860
:103180003BFA040889BE0408CC4A05082DE9F84337
:10319000DDF824800D461646814601F085FC8368E3
:1031A000044607681E4443681D4456EA05035AD482
:1031B0007B8DAB4257DDFB8DB34254DB484600F0BC
:1031C000D9FFA3690268CBB97B6A520043B91046A4
:1031D00002F0A4FCA06158B9244925480FF00CFC6A
:1031E000934203D2234922480FF00FFCFB68A361EE
:1031F000A369FB60ABB2E68123826382A3893BB300
:10320000E389B3421CD1237D13B198F80330BBB1DD
:1032100098F80020184B03EA022398F80120D20006
:1032200002F4FC62134398F8022043EAD203A26935
:103230005BBA911CA1611380A3890133A38111E0C2
:1032400021463846FFF704FFE681ABB22382638252
:10325000237D002BDCD098F80330002BD8D1ADB201
:10326000E68125826582BDE8F88300BFA2BE04081E
:10327000F04A0508B6BE040800F8FFFF0A460149F7
:1032800004F0BAB818C3040838B50546142002F093
:1032900045FC002304467E218360C36003610A4B22
:1032A000C0E9003528460FF079FD40F21961A060B1
:1032B00060680FF073FD40F25161E06060680FF0EC
:1032C0006DFD2061204638BD48C3040837B505466A
:1032D0000C462CF08BFF0146284617F05BF805469C
:1032E00020462CF083FF0146204617F053F8054A8C
:1032F0006946CDE90050022024F058FBFFF7C4FFD7
:1033000003B030BD8849050810B50446104612F0D8
:103310006FF80146A0680FF0B7FC062803D0BDE89F
:10332000104011F0DBB9002010BD5200C068490008
:1033300042F0010241F0010108B50FF0AFFCBDE819
:10334000084011F0CBB910B54721044640680FF092
:1033500025FD0623C4E90133C4E90333BDE8104069
:103360000FF060BC08B5FFF7EEFF062008BD033183
:10337000C26E034621F003018A4223BF521AC2667D
:10338000806E002024BF0918996670472DE9F84324
:103390000546067B884600244FF0FF09D0E9000768
:1033A0003A78E6B950B9AF684FF400722B6F2846EF
:1033B0003946984718B96FF001001DE00137013810
:1033C0003A783EB1D2B96400FF22802687F8009097
:1033D000013408E0FF2A4FF00106E3D080261642B0
:1033E0004FEA4404F4D1B8F101084FEA5606D8D1A7
:1033F000C5E9000720462E73BDE8F8836FF005008D
:10340000FAE72DE9F84F04461F464FF00009037B09
:10341000924688464FF0100B4E46D0E900052A78B8
:103420000BBB50B9A5684FF40072236F20462946A4
:10343000984718B96FF0010008E0013501382A7883
:10344000B9F1000F0CD01AB16FF00500BDE8F88F8C
:10345000FF23914676001A462B708023013606E042
:10346000FF2A1BD0802313424FEA4606F6D198F874
:1034700000105B0839448F4205D1BBF1010B08F104
:103480000108CDD1E0E73AF802CBB44504D123736B
:10349000C4E900053878D9E70137ECE74FF00109B6
:1034A000BFE700002DE9F04F044685B00D46002A25
:1034B00000F0DF81C0E91A230E9B21674FF40071F1
:1034C00043670023438303620363036443624363EC
:1034D0004364836283638364C362C363C365C0E977
:1034E0001333C0E91533FFF742FF0646A0600028FA
:1034F00000F0FB80014602222046A847022807462A
:1035000003D0022005B0BDE8F08F32884DF6FF03EE
:103510009A4240F08980236F042231462046984722
:103520000428EED17288338852BA5BBA92B29BB249
:10353000022A79D9190AFF2976D1951E0232174439
:10354000DAB2DA2A00F0288126DCA2F1C00398B2B0
:10355000192826D801238D4A834013EA020819D17D
:10356000042853D0DB071CD5B5F5007F00F283811A
:10357000236F2A46314620469847A842C1D1B6F863
:1035800003305BBAA383B6F801305BBAE383737987
:10359000032B0CD00820B5E7DB2A00F0B880DD2A29
:1035A00025D0236F2A46002120469847B3E7F379B8
:1035B000324604F10F01112B03D0A3F121000128A1
:1035C000E8D8180903F00F03E3733346A0731B7A9E
:1035D000032BDFD808F10108033201F8013FB8F1ED
:1035E000030F98D0D07913461128F0D0D2E7B5F563
:1035F000007F87D8236F2A46314620469847A84245
:103600007FF47FAF33885BBA638384E7B5F5007FCF
:103610003FF678AF236F2A46314620469847A842A6
:103620007FF46FAF102D01D806206BE7B04647E05E
:10363000022308F111081A46029B12FB093904EB18
:10364000890300F1FF394A46009318621BF8013BD9
:10365000D8451D4402F8013FF8D169002046FFF724
:1036600086FE0246002840D0009B002118630AF124
:103670000F0303930B4619F8010F02EB410A9E4614
:103680008446BCF1010C32D20344014403989BB23E
:1036900048454FEA43039BB2EDD1019BAB42C3D3F4
:1036A00029462046FFF763FEF8B1009B42191864D3
:1036B000904223D1019B5D1B3FF42DAF102DB3D958
:1036C000C346A5F111031BF8019B019319F0EE0508
:1036D000AAD14FEA19131021204609F00F090293CD
:1036E000FFF745FE82460028A2D103200AE70EF12B
:1036F000010B2AF802EB1FFA8BFEC2E7029918F8B9
:10370000013B09B90B2B8FD800F8013BD0E7B5F589
:10371000007F3FF6F7AE236F2A4631462046984792
:10372000A8427FF4EEAE402D7FF67EAF06F1410950
:10373000DFF860B019F8418C413DA9F1400AB8F1B9
:103740000F0F3FF671AF4FF48071204608F0030869
:10375000FFF70DFE0028C8D008F114080C4944F802
:10376000280011F8012B1AF8013B3BF812C0D14593
:103770000CFB03F340F82230F3D1002D3FF4CBAE25
:10378000402D09F14109D5D84EE700BFEEEE000209
:10379000E4C7040864C70408B5F5007F3FF6B2AE7D
:1037A000236F2A46314620469847A8427FF4A9AEA7
:1037B000A38B002B3FF438AFE38B002B3FF434AFE7
:1037C0003378032B7FF4E6AE04F10F010022134699
:1037D000013216F8120010B111287FF4DBAE003B65
:1037E00018BF0123181D54F8300000283FF41CAF07
:1037F00004EBC3035B6A002B3FF416AF11F8013FE3
:10380000143354F82330002B3FF40EAF032ADED1DB
:10381000E57BA37B15FB03F5002D3FF405AFE90124
:1038200020464031B1F5807F38BF4FF48071FFF7FB
:103830009EFD206600283FF458AFA91C2046890150
:10384000FFF795FD606600283FF44FAF0023C7F3F4
:1038500008076660236023734FB1C7F50072F11942
:10386000013F236F2046374498472060676000205F
:1038700048E6052046E6042044E600BF2DE9F04F67
:10388000032A95B00446119100F2C183837B4273F1
:10389000DB000D93C37BDB000E93002343610383A6
:1038A000049307930293029AE38B934200F2AD8351
:1038B00000202DE0628B002A38D0079B0799013346
:1038C0008A429BB240F0E58002260025D4E9000739
:1038D00058B9A7684FF40072236F204639469847BD
:1038E00020B9022014E00126F2E701373B78012ECF
:1038F00000F1FF3043EA05231AB29DB2F3D122F062
:103900002702002330322373C4E9000703D00620C6
:1039100015B0BDE8F08F049B5D4015F00705F6D1AA
:103920000133656125839BB207960493236EA27BC6
:103930000393E37B12FB03F30893636E0833069350
:10394000089BC3F101030593089B013B0A93059A69
:1039500020460A9B16461344089A9A4288BF0026BE
:10396000351E18BF012504EBC5010B6C0A6B096AF3
:10397000FFF747FDB0F1000980F28D80C9F100002A
:10398000C0B20028C4D1E27B082394F80EB009929B
:10399000D200A18B1BFB03FA0392019A13FB0B23AA
:1039A0008B4288BF1346E28B94BF5146C91ADDE9AA
:1039B0000230034493428ABF029B039AD21A637B6C
:1039C000D940059158D0DA40069255D0019A032B80
:1039D000206E22FA03F292B2ADF8482002F1FF32D3
:1039E0000A440699ADF84A20029A22FA03F292B2EA
:1039F000ADF84C2002F1FF320A44ADF84E2000F041
:103A000087820AEB4A034FF0000C4FEACA090C9375
:103A1000039B634540F0BC81637B002B40F0248214
:103A2000637B059A2AFA03F39A42C0F0CA82216E98
:103A3000D44ECA1C0D46DDE90503584312F8023C7A
:103A4000013812F8037C02F103024FEAC30306EACD
:103A5000072703F4FC6343EA070312F8047C43EAF4
:103A6000D7035BBA25F8023BE8D112AA2046119B86
:103A70009847002800F0CD82019B0D9A13440193D2
:103A8000019AA38B93423FF615AF029B0E9A134403
:103A900008E707934AE704EB4608B8F9147018D012
:103AA00049462046FFF772FC002801DA404267E7EA
:103AB000012309F1FF3903FA09F910EA090F02BFDE
:103AC00009FA03F909F1FF39A0EB09000744A8F846
:103AD00014702644039804EBC505FC22337C0021B6
:103AE000143354F8236033685F433F1240F8047B7B
:103AF0002CF042FB6F6AD5F83480D5F8449001254C
:103B0000AA464B46424639462046FFF77AFCB0F1BA
:103B1000000B40F0F580627B039B032A1B6800F0DA
:103B20001F81039B4FF4B55841F2511A203309937A
:103B3000039BD3F8802041F69059D3F8C05004334A
:103B400053F8040CD96B8618801A4A1B2944DF6D80
:103B500008FB02F2D3F8DC50D3F89CB006EB010E60
:103B6000C1EB2232761A00EB020C801ADA69511B83
:103B70001544ABEB0702BB44A5EB0B075D4401EB1F
:103B8000020B0AFB01F108FB07F709FB0BFB09130A
:103B9000C1EB2B3942F6CF114A431213C2EB2B3241
:103BA0000EEB050B521BAEEB050543F804BCC2EB54
:103BB0002737C3F8DC500CEB0205ACEB0202A9EB93
:103BC0000701C3F8BC20C219C01BDD61DA6372189B
:103BD000761AC3F89C00DA65099ADE679342A8D189
:103BE00006984FF4B55ADFF8A4C1024640320B9252
:103BF00053F8202C083053F8101C203353F8287C3D
:103C000002F5004253F8385C5618521AE91B3D443D
:103C100053F82CEC0AFB01F153F8247C53F834BC24
:103C200006EB0509C5EB2131761B02EB0108521AA0
:103C300053F83C1C099241F69052CD1B0F44AEEB59
:103C40000B01F344A7EB0B0E5F4405EB010B0AFBE2
:103C50000EFE02FB0BFB41F25112554342F6CF120E
:103C600051432D13099A0913C5EB2B35C1EB2B31A9
:103C700009EB070BA9EB0709C91BCBF3092BC9F308
:103C80000929C1EB2E3E1CF80BB01CF80970A5EBFE
:103C90000E0500F810BC00F8097C08EB0107A8EB42
:103CA0000108C7F30927C8F309281CF807701CF896
:103CB000081000F80F7C00F80A1C02EB0E01A2EBC2
:103CC0000E02C1F30921C2F309221CF801101CF8ED
:103CD000022000F80E1C00F80B2C7219761BC2F3A0
:103CE0000922C6F309261CF8022000F80D2C1CF846
:103CF000062000F80C2C0B9A82427FF479AF37E053
:103D000002DACBF100003BE65FEA1B1306D01D444C
:103D10003F2D3FF6FCAD1BF00F0B1CD05946204643
:103D2000FFF734FB0028FFF6C1AE0BF1FF3B164B4B
:103D30000AFA0BFB5B5D10EA0B0F56F8232002BF5B
:103D40004FEA4B0B0BF1FF3BA0EB0B005043039AE8
:103D5000001242F823000135402D7FF4D2AEDAE69E
:103D6000002B069AB8BFFF331B12803B02F8083CB9
:103D7000069B40330693059B0133032B05937FF489
:103D8000E6AD00E600F8FFFFE4C7040864C30408DA
:103D9000099B626E022B02EBCC0116D14FEA5C0349
:103DA000BCF1070F03F1200388BF403102EBC302CF
:103DB00000F103084FF0000EF24508D10C9B0CF106
:103DC000010C09F10809184422E64A44F0E792F888
:103DD0004030BBF1020F1578A3F18003A5F18005F7
:103DE00008933FD1BEF1080F0EF0010608BF38312D
:103DF0003244089B40F29B5711F8016B0EF1010E03
:103E00005F43854B08F1030848BF07F2FF3706EB15
:103E1000A727C7F30907DF5D40F2DB2308F8067C1C
:103E2000089F5F433B464FF4B07707FB05337A4F5B
:103E3000002BB8BF03F2FF33A6EBA323C3F30903A0
:103E4000FB5C08F8053C40F216735D43724B48BFBB
:103E500005F2FF3506EBA526C6F309069B5D08F8BB
:103E6000043CA9E70132C4E75A000AFA03F1206EC4
:103E7000089201220F9103219A4001FA03F30021D5
:103E800010930991039B099DAB427FF6C9AD01EBED
:103E900041084FF0000E18E005EB08031E46002312
:103EA0009946CDE90A334A4518D1089D03300A9F47
:103EB00096440B9EEB40EF40EE4000F8037C00F888
:103EC000026C00F8013C109B9844F245256EE3D843
:103ED000099B134409930F9B1944D3E706F1030C84
:103EE00000251CF803BC01350A9F0CF1030CAA4203
:103EF0005F441CF805BC0A970B9F5F441CF804BC88
:103F00000B975B44EDD10C9D09F101092E44CAE7E2
:103F1000039B656E03FB0AF3DFF8FCC0EA18ED5C57
:103F200040F2DB2392F8401040F29B52803D8039F2
:103F30004A4301FB03F34FF4B07148BF02F2FF3272
:103F400001FB053340F216719212002BB8BF03F249
:103F5000FF3369434FF000054FEAA32348BF01F246
:103F6000FF315B428912039EAE427FF659ADD4F811
:103F700064E0082D4FF0000608BF0EF1800EB24538
:103F800000F1030701D80835EDE71EF836000836C2
:103F900000EB0208C8F309081CF8088007F8038C36
:103FA00000EB03080844C8F30908C0F309001CF833
:103FB00008801CF8000007F8028C07F8010C38464E
:103FC000DDE7206E03EB4308059A0027064602EB67
:103FD000420CC11CF21C002511F803EC0135059BB5
:103FE000033102F803EC033211F805ECAB4202F89E
:103FF00005EC11F804EC02F804ECEDD10137069B56
:1040000066444044BB42E4D111E5002337E5052076
:104010007EE401207CE400BF64C30408006800BAA9
:104020007047000070B542690446037B4165534305
:104030001C4A656852F82100421E2A441A4D55F860
:104040002110521AB2FBF0F25A430733A06BDB087F
:1040500007325B0003EBD203E36308B101F086FD96
:1040600023680026E06B5E6101F058FDA06338B95B
:104070000E4B4FF0FF306366FE2384F8283070BD8E
:10408000236858613046636D55F82320E264084A7E
:1040900052F8233023654FF0FF33A364C4E9106363
:1040A000EDE700BF28CB040868CB040824C8040847
:1040B00048CB04085200002370B5446ACD5AE65C30
:1040C0001C440233647804EB0624A54203D19342D6
:1040D000F3D1012070BD0020FCE7000038B5044694
:1040E00020B30025124B80F828504366806B08B13E
:1040F00001F03CFD2368E0695D6108B101F036FD27
:1041000023680025606A9D6108B101F02FFD2368D6
:1041100010220021201DDD61A563E56165626561F6
:10412000E5662CF029F8A5612562656738BD00BFFA
:1041300038C8040838B505464AF6643001F0EEFC8C
:10414000044610B10560FFF7C9FF204638BD10B521
:10415000044630B1FFF7C2FF2046BDE8104001F031
:1041600005BD10BD08B1406E70470148704700BFE3
:1041700041C8040820B143690BB1043070471846A8
:10418000704700002DE9F04F044697B090F92830B1
:104190004FF0000B0F910C9209930C9B9B4580F004
:1041A00031840F9B03EB0B060C9BA3EB0B0594F9DF
:1041B00028300233052B00F25984DFE813F07E012A
:1041C00006000C002200DC003904002D14DA284619
:1041D00017B0BDE8F08F072D40F20F84082231465A
:1041E00095482BF0F1FF18B1944B6366FE2362E112
:1041F000012384F82830082594F92830AB4409932A
:10420000CBE7072D40F2F983311D3046FFF706FF5B
:10421000206308460422FFF701FFE062002000F05F
:1042200047FC0223864A84F82830E36A606393429D
:1042300020D00FD8A2F58022A2F2FE22934223D0F2
:1042400002F58632F0329342D5D1E36E002B6AD16B
:104250007C4BCAE77C4A934230D002F1105202F5FF
:10426000BF2202F20E229342C5D1206B002860D1FA
:10427000764BBAE7236B0D2B01D0754BB5E763691D
:10428000002BB8D0734BB0E7236B0BB9724BACE784
:1042900063690BB9714BA8E7637B032B03D1E36917
:1042A0000BB96F4BA1E7E36E002BA4D104F52D539E
:1042B0002433E3664FF4004323679CE7206B08B97F
:1042C000684B92E76369002BE4D0E3690BB1664B5E
:1042D0008BE7637B032B15D8012B15D9634B434325
:1042E000B3F1553FECD80323227BB0FBF3F001235D
:1042F0009340B3F5807F28BF4FF48073984205D96F
:104300005B4B72E7062BE9D05A4B6EE700EB40009F
:1043100001F004FCE06108B9574B66E72368986137
:104320000023A36167E7236B002B3FF464AF534B7B
:104330005BE76369002BADD0636A0BB1504B54E768
:10434000637B022B13D0032B0AD093B902288FD1A1
:1043500001F0E4FB60620028DED0002323624AE71C
:10436000227B012393409842F2D9464B3DE7062831
:10437000EDE7454B39E7236B2A46E16A9D42324817
:1043800028BF1A46814200F00C831FD800F1F83094
:1043900000F20710814200F02C8300F53D3000F25E
:1043A0000E2081422AD0A0F58020A0F2FE2081427A
:1043B00000F0B580151E00F30383236B13B90323AC
:1043C00084F82830002D00F0188300E72F48814240
:1043D00000F00D8300F1516000F5803000F5897028
:1043E0008142E7D1617B022900F0EF82032900F0CE
:1043F000FA82002900F0F982234A56E00C2A40F2A2
:10440000F8823046FFF70AFE6060301DFFF706FEB7
:10441000A060327A2273707A6073B77AA773F57AE4
:10442000E573317B2174062862D8DFE800F0316142
:1044300049505D615F0000BF88CB04084FC8040885
:10444000524448495BC9040845544C508AC9040881
:1044500067C804087FC80408A4C80408BCC80408C6
:10446000D3C80408EAC8040802C90408ABAAAAAA67
:1044700041C9040816C9040824C8040872C90408FC
:10448000A2C90408B6C90408D0C90408414D41674F
:1044900001206061501E012823D9102A04D89348B6
:1044A00020FA02F2D0071CD4914A6266FE2284F8F8
:1044B000282013B9032384F828304FF0FF3586E60F
:1044C0000320082A60610CD0102A0AD0ECE70120F2
:1044D000082A6061E8D86FF48B7040FA02F2D207C4
:1044E000E2D43FB1834AE0E70220EAE70420E8E7AC
:1044F000814ADAE70DB1814AD7E70039204618BF73
:104500000121FFF78FFD002801DA236BD1E7A36DAE
:104510001BB12046D4E9011298470D2550E2002A2C
:1045200000F06782236F04F52D5A119231461293E1
:1045300003230AF1240A11AA029312AB04F17400B6
:104540000193E36E0093534600F0D2FA002805DA97
:104550006B4B6366FE2384F82830D6E7129BE26E2D
:104560001A44E266226FA2EB0301216701D0002901
:1045700041D103F50043D1469B1A62690A93534423
:104580000D93237B53430733DB0805930D9B4B456A
:1045900029D96068E36C256D8342A2680CD2236D33
:1045A00093421CD2A36C99F80020002B049342DAAA
:1045B000042A2BD9534BCCE7636D5349534F51F821
:1045C000231057F82330E1645B1916D2934228BFB9
:1045D0001346236588424FF0FF33A364DFD8616D33
:1045E0004B1E052B0BD90A9B002B8EDB4FF400438F
:1045F000C4F86CA02367119ADCE61346E9E70131A1
:104600002046FFF70FFD0028C0DA7EE7A2640022F3
:1046100009F101091046059B9342B7D0236C013282
:10462000A16BC854236CE16B0133B3FBF1F501FBC3
:1046300015332364EFE7D4E90FC5059BA76B2B4423
:10464000059917F80580B3FBFCF00CFB1033F85C00
:1046500005EB0C035B1A0499B3FBFCFE01390CFB60
:104660001E33FB5C032905D8DFE801F03D021A1F69
:104670000244D2B27A55D4E90F350135B5FBF3F2D5
:1046800003FB1255626C002A2564BCBF059A626464
:10469000626C013A6264002A3AD009F1010975E7B7
:1046A000034402EB5303DAB2E4E71918A1EB080163
:1046B000A1EB030EA1EB000CA1EB0801BEF1000F72
:1046C000B8BFCEF1000EBCF1000FB8BFCCF1000CAA
:1046D0000029B8BF4942E64501DC8E4503DD8C4523
:1046E000D4BF034643461344DDE700BF1001010079
:1046F000FBC9040821CA04080DCA040846CA0408F4
:1047000066CA04088BCA040868CB040808CB0408EE
:104710001D44059A4FF00108AD1AB5FBF3F203FBF7
:104720001253627B049312F0010F237B14BF0827FE
:104730001F46102B08FA07F714BF4FF00808CDF8F2
:104740001C8007F1FF3718BFB8FBF3F3BFB218BFE7
:1047500007934FF000087B080693079B013B0793E4
:10476000013300F01A81E36C0893089A636893425E
:104770000B9340F21281636914A800210E930EE09E
:1047800094F80CC0BCF1080F58D01FD8BCF1020F30
:1047900016D8BCF1000F34D1013120F802CB0E9BAA
:1047A0009942EDD1637B980740F1DC80D90740F155
:1047B000C580BDF85030A26993424CD3AE4BC8E6D9
:1047C000BCF1040F1DD04FF0000CE5E7BCF1100F59
:1047D000F9D1049B049D03F1010ED4E90EC2BEFB86
:1047E000F2F302FB13E31CF805501CF803C001337D
:1047F0000CEB052CB3FBF2F51FFA8CFC02FB153316
:1048000027E0B8F1070F09DD049D4FF00008E36BC6
:104810000135B5FBF3F203FB12530493E044A36BA1
:10482000049A9A5CC8F10803DBB21A41012303FA27
:104830000CF3013BDBB203EA020CADE7049AA36B75
:10484000154613F802C00135E36BB5FBF3F203FB29
:1048500012530493A0E703EB4301E269505C0A445E
:1048600051789278ADF85000ADF85420226AADF836
:104870005210934274D2626AD35CADF85630E36D45
:104880001D46002B4DD0BDF850200DF14C0C069864
:10489000C2EB0222616D794B0244DFF8F8E153F874
:1048A0002130B2FBF7F28DF84C20BDF85220C2EB5C
:1048B00002220244B2FBF7F28DF84D20BDF85420DD
:1048C000C2EB02220244B2FBF7F28DF84E20BDF893
:1048D0005620C2EB022202446948B2FBF7F250F8BC
:1048E00021008DF84F20226D1B1ACDF804C0DFF88F
:1048F000A8C10E935CF821C05EF82110089BACEBB8
:10490000010C0B98A168C01A0E9B891A8C4594BFA4
:10491000CDF800C000918342089928BF0346204685
:10492000A847616D5548E36C50F8211062685B1828
:1049300002D29A4228BF1A46E2640EE75A0702D50D
:10494000BDF8563099E7236A012B09D1032214A937
:104950002046FFF7AFFB00280CBF3B4600238CE747
:104960003B468AE75B070AD5BDF85230ADF85630B2
:10497000BDF85030ADF85430ADF852307FE7226AC0
:10498000012A08D114A92046FFF794FB00280CBF88
:104990003B460023EAE73B46E8E74FF0FF3363641A
:1049A0007BE6022A25D9A3690325E26903EB4303C9
:1049B0003088D118D052B3788B70A3690133A361CA
:1049C000236BAB4223D22F4B0FE40625AA4210D310
:1049D0002A463146D4E9083018442BF089FB236A73
:1049E00001332362ECE70125F0E70225EEE7032A15
:1049F0000BD813B9032384F8283094F92830099A86
:104A0000934236D15D46FFF7E2BB0425D8E75B1B36
:104A10002A463146606B236300F04AF8236B6063DB
:104A2000002B7FF4E9AB032384F82830FFF7E4BBC5
:104A3000032DE2D93046FFF7F1FA636B984202D0BA
:104A4000114BFFF7D2BB0123E26A84F828300F4BE9
:104A50009A4202D00425FFF7CFBBFF2384F8283009
:104A6000236E002BF6D020469847F3E7084BFFF75C
:104A7000BCBB0025FFF7C0BBA8CA040828CB0408AC
:104A800068CB0408C4CA0408EACA0408444E45496D
:104A9000F7CA040848CB040808CB040800B1C16574
:104AA000704700B18166704700B1806E70470000AA
:104AB00030B5C9B1C0430A440C4C914201D1C04346
:104AC00030BD11F8015B85EA000303F00F0354F8D1
:104AD000233083EA101000F00F0383EA151354F813
:104AE000233083EA1010E8E70846E9E7B4CD04086C
:104AF0002DE9F04FB3B006468A4607931368DDF8F8
:104B0000F0B0CB180C9200933D9B1B680BEB03029B
:104B100004923E9A12F00402089212D1079A013BC5
:104B2000ABEB0202D318591C069319420DD0002397
:104B30003D9A6FF0020013600C9A136033B0BDE829
:104B4000F08F4FF0FF3300210693079B9B45EED378
:104B5000336A75680293D6F83880D6E909930193D1
:104B6000F36B03933368352B00F2FD86DFE813F017
:104B700036007F00A6001101FB06230149017F01D9
:104B8000FB06D20114026C02FB06FB06A402FB0624
:104B9000D70343045904FB06FB069004FB06C2043A
:104BA000FD047005C5051706FB06FB06FB06FB06A4
:104BB0009606FB06F8063703FA004006DE0194016C
:104BC000DA01BE06ED06FB06FB06FB06FB06FB064E
:104BD000FB06FB06FB069A01CF0179060022C6E917
:104BE00002220122F26132613E9A12F0010500F0C8
:104BF000BD80009A924557D39846994601930293F7
:104C00003E9A12F0020246D001205F4654461D46ED
:104C10003060029BA4EB0A047560A7EB0B07C6F893
:104C20003880C6E90839019BB362039BF3630C9B90
:104C30001C603D9B1F603E9B13F0090F3FF47EAF4D
:104C4000421C3FF47BAFF3694FF6F1749DB24FEA1B
:104C5000134C41F2B053B7FBF3F203FB1272002F77
:104C600000F0D5865B4600F0A6BE2B46C8E7009B49
:104C70009A45FAD254462B4614F8012BB260009A9A
:104C800094420DD33E9A95074FD502225F461D46AA
:104C900032600120BDE7B2605446009A924544D28A
:104CA00014F8012B1D460FE054469846994601938F
:104CB00014F8012B0293E1E72B46E3E7009B5446EF
:104CC0009A45F9D214F8012BB3681F20F26002EB69
:104CD000032902F02002B9FBF0F0C0EB4010A9EB71
:104CE000000959EA020923D103F00F02082A1FD153
:104CF000089AAAB35F46022D3ED908F00703033D88
:104D00004FEAD80873615B08B361002B40F0408123
:104D100005F00703AB425DD9009B9C4257D33E9BF5
:104D200013F002034ED005232EE01D460022CBE7F0
:104D3000089A4FF001096AB94A461B090120083355
:104D400000FA03F7B7F5004F0ED831FA03F30BD092
:104D5000002ACFD024235F4633604FF0FF3058E75E
:104D6000089AEAE75446F5E78146F3E75F4654467A
:104D7000A846A94601950295009B9C4215D33E9BEF
:104D800013F002030CD00323336082E75F465446DE
:104D9000F5E7009B9A45F9D254465F4614F8013B6B
:104DA000AB40083548EA0308A5E714F8013BF7E7EC
:104DB0005F465446B3E7009B9A45F9D254465F4696
:104DC00014F8013BAB40083548EA0308A0E714F8A3
:104DD000013BF7E705F007034FF0000925F0070551
:104DE00028FA03F8BDB3072D1AD8009B9C4214D3B0
:104DF0003E9B13F002030BD00623C5E75F465446E3
:104E0000F6E7009B9A45F9D254465F4614F8013BF9
:104E1000AB40083548EA0308E5E714F8013BF7E73B
:104E200006EB090342F62012083D03F802804FEA20
:104E3000182809F10109B9F1030FD3D906F5005378
:104E4000B3F82099B3F82239DB439BB2994550D08F
:104E50002723336081E7009BA34215D83E9B13F0C4
:104E6000020113D007238FE75F465446F6E7009B05
:104E70009A45F9D2544606EB090342F620125F46E2
:104E800014F8011B9954D4E714F8011B06EB09032D
:104E900042F620129954CCE75F465446D8E75F4665
:104EA00054460FE0009B9A45F9D254465F4614F8E9
:104EB000013BAB40083548EA0308072D0BD8009B9F
:104EC0009C4205D33E9B13F00203F2D033235BE7F1
:104ED00014F8013BEDE75FFA88F3083D4FEA182824
:104EE0000293049B9F420ED2029B09F1FF3907F8FF
:104EF000013BB9F1000F33D0002DDED1049B9F425E
:104F000016D3092300E034230220336081E65F4694
:104F10005446E6E75F465446F0E73E9B980703D5C4
:104F2000262331E75F465446282392E75F465446DE
:104F3000009B9C42F1D21A1B049B21463846DB1B86
:104F4000934228BF13464B4528BF4B461A4605934C
:104F50002BF0CEF8059AB9EB020914441744CDD1D1
:104F60007369D8077FF5C7AE3E9BD90740F1DB8454
:104F700005F00703AB4240F2A184009B9C42C0F0C5
:104F80009A843E9B13F0020300F08F842023FBE6FB
:104F9000032B04D10A235CE75F465446FAE7012B52
:104FA0003FD14FF490732022052106F55E60C6E9DB
:104FB0000B322BF0E1F89022082106F140002BF093
:104FC000DBF87022092106F1D0002BF0D5F8182269
:104FD000072106F5A0702BF0CFF84FF00833C6F884
:104FE0005831C6F85C31B369002B0A9380F28C808B
:104FF000009B1B1B032B40F34F82049BDB1B012BED
:1050000000F3B6820E2D00F2828205F10802637869
:10501000934014F8022BAA401035134348EA0308C2
:1050200075E24FF00009B94B13F80930AB421AD9B9
:10503000009B9C4214D33E9B13F002030BD00B2326
:10504000A2E65F465446F6E7009B9A45F9D25446DD
:105050005F4614F8013BAB40083548EA0308E2E735
:1050600014F8013BF7E7A94B06EB890113F8092077
:1050700001239340AD1A013B03EA080328FA02F822
:10508000A34A52F8292009F101091344B9F1020F8A
:10509000CB62C8D94FF000094FF49072002106F599
:1050A000DC502BF069F8736B4B4510D813237363F6
:1050B00099E75F4654460FE0009B9A45F9D2544663
:1050C0005F4614F8013BAB40083548EA0308022D5F
:1050D0000BD8009B9C4205D33E9B13F00203F2D0F9
:1050E0000E2351E614F8013BEDE78A4B08F0070266
:1050F000033D4FEAD80813F8093009F10109334498
:1051000003F5DC531A70CEE74022002111A82BF0E2
:1051100033F80A9A4FF45A63002153434FF4006264
:10512000059303F5B073F31818460D932BF024F88C
:10513000059B00214FF4906203F5166030442BF07C
:105140001BF8B3690E9306EB8303D86A059B3F33C4
:10515000F31819460B9300230993099B98422AD10F
:1051600000230DF1440C01220DF1840E1846CDE907
:1051700021335CF8041F013208441944102A4FEA15
:1051800041034EF82230F4D1B3F5803F20D1002303
:105190000A994FF0FF3205934FF4DA6359430A91AD
:1051A000099B05998B421DD10E9B022B40F0F98083
:1051B0004FF00009D9E032AA11F8013F02EB830356
:1051C00053F8842C013243F8842C099B0133C3E744
:1051D0000128DCD923234FF0FF30336019E55F4607
:1051E0005446F7E70B9B13F8011F8E460B9309B348
:1051F00032AB0F9103EB810353F844CC0CF1010067
:1052000043F8440C00230CF001004FEA5C0C40EA28
:1052100043030F9801380F90F5D10A2913D8059848
:1052200040EA412C01200FFA8CFC00FA01F1B3F5A1
:10523000806F03D3059B01330593B1E70D9820F8E8
:1052400013C00B44F3E70A99C3F3090C8C4406EB33
:105250004C0CBCF9601119B91146ACF86021023A46
:105260005B0A5B08BEF10B0F03F0010CA1EB0C0114
:105270006FEA010107D10A9B1944059B01F596616C
:1052800026F81130D6E70A98014406EB4101B1F93E
:1052900060C9BCF1000F06D1A1F860291146023A9D
:1052A0000EF1FF3EDDE76146FAE70E2D44D8009B84
:1052B0001B1B012B7CDCC8F3090303F5656336F97E
:1052C000130000280DDB401201D0854234D2009B30
:1052D0009C426AD33E9B13F0020327D01023012087
:1052E0007BE70A2DF3D90A2241F2502128FA02F372
:1052F000013203F00103013B1B1A0B4436F9130082
:10530000002819DA9542F1D1E1E700BF90CB0408FB
:10531000A8CD040894CD04085F465446DAE7009B04
:105320009A45F9D254465F4614F8013BAB40083524
:105330000E2D48EA0308BED9C8F3090303F56563D7
:1053400036F9130000283FDB4212C0F308000F2893
:1053500028FA02F8A5EB0205029045DC06EB0902EB
:1053600042F6241309F10109D054F36A0593336B13
:105370000993099A059B13444B4596D840F08A80BF
:1053800006F52451059A06F1400024310A912AF0CD
:10539000AFFE059B06F55E600A99099A19442AF04A
:1053A000A7FEB369013BB3611DE614F8013BBDE7FD
:1053B00005F108026378934014F8022BAA401035D7
:1053C000134348EA0308B7E70A2241F2502128FABA
:1053D00002F3013203F00103013B1B1A0B4436F9BF
:1053E00013000028F3DBB2E7102807D1B9F1000F52
:1053F00004D11123EFE65F465446FAE7B04B03446D
:1054000013F8103C9D42019319D2009B9C423CD35F
:105410003E9B13F002030BD0122360E75F46544615
:10542000F6E7009B9A45F9D254465F4614F8013BD3
:10543000AB40083548EA0308019BAB42E5D8019A26
:105440000123029906F524509340AD1A102900F16A
:10545000240003F1FF33484403EA080328FA02F862
:10546000984A0A4412F8102C134408BF06EB0902AC
:1054700005930B460ABF42F623130021D15C059A1F
:105480002AF07AFE059B99446FE714F8013BCFE7B9
:105490005F46544615239EE60E2D38D8012B3FF764
:1054A000B4ADC8F30903B03336F9131000290CDB8F
:1054B000491201D08D422AD2009B9C4240D33E9B90
:1054C00013F002031DD017235EE40A2DF4D90A223B
:1054D00028FA02F3013203F001035B1A03F2AF432F
:1054E00036F91310002912DA9542F1D1E4E75F464C
:1054F0005446E4E7009B9A45F9D254465F4614F8B7
:10550000013BAB4008350E2D48EA0308C9D9C8F362
:105510000903B03336F91390B9F1000F13DB4FEAEA
:105520006922C9F30809B9F1FF0F28FA02F8A5EBBF
:1055300002054CDC049B9F4215D207F8019B57E5FE
:1055400014F8013BDDE70A2228FA02F3013203F0E6
:105550000103A3EB090909F2AF4936F91990B9F132
:10556000000FF1DBDFE71823CEE45F465446E1E7A6
:105570000E2D9FBF34F8023BAB40103548EA0308BC
:10558000C8F30903B03336F91320002A3EDB511269
:1055900028FA01F86D1AD105914618D40E2D9FBF37
:1055A00034F8023BAB40103548EA0308C8F309035E
:1055B000B03336F91300002836DB4112C30528FA50
:1055C00001F8A5EB01053A703CD501378146C9F3D6
:1055D0000809B9F5807F3FF4C3AC6FF4807C3A4B87
:1055E000E14453F829300193384B53F82990019B3B
:1055F000002B45D09D4239D2009B9C425CD33E9B00
:1056000013F002032BD01923FFF7BEBB0A2128FA9F
:1056100001F3013103F001039B1A03F2AF4336F9A2
:105620001320002AF3DBB3E70A2128FA01F3013142
:1056300003F001031B1A03F2AF4336F913000028ED
:10564000F3DBBBE778700237D2E45F465446D6E717
:10565000009B9A45F9D254465F4614F8013BAB4093
:10566000083548EA0308019BAB42C5D8019A0123DB
:105670009340AD1A013B03EA080328FA02F8994463
:105680000E2D47D8009B1B1B012B6BDCC8F30903B5
:1056900003F5F06336F91310002919DB491201D024
:1056A0008D4237D2009B9C4259D33E9B13F002039C
:1056B0002AD01A23FFF768BB14F8013BCFE700BFDD
:1056C00094CB040898CB040818CD04089CCC04089B
:1056D0000A2DE7D90A2228FA02F3013203F0010366
:1056E0005B1A03F67F3336F91310002912DA95425C
:1056F000F1D1D7E75F465446D7E7009B9A45F9D2E8
:1057000054465F4614F8013BAB4008350E2D48EA7D
:105710000308BBD9C8F3090303F5F06336F9131086
:1057200000292BDB4A12C1F30801C14B28FA02F809
:10573000AD1A53F821300193BE4B53F82130029338
:10574000019B002B45D09D4237D2009B9C424CD3FD
:105750003E9B13F0020329D01B23FFF715BB14F85F
:10576000013BD1E705F108026378934014F8022B5E
:10577000AA401035134348EA0308CBE70A2228FA67
:1057800002F3013203F001035B1A03F67F3336F9AB
:1057900013100029F3DBC8E75F465446D8E7009BA7
:1057A0009A45F9D254465F4614F8013BAB400835A0
:1057B00048EA0308019BAB42C7D8019A01239340F2
:1057C000AD1A013B03EA080328FA02F8029A1A44C8
:1057D0000292079BFB1A0393DDE9023293420AD936
:1057E000089B43B12523FFF734BB14F8013BDDE7E9
:1057F0005F465446F6E7DDE9022304999B1A069AB0
:105800001340079A13449F422CBF09EB070209EB90
:105810000302914236D3033313F8032C4846A9F10F
:10582000030919463A70033313F8052CB9F1020F36
:105830007A7013F8042CBA703A4607F10307EBDCD0
:10584000B9F1000F7FF7D4AB0B78B9F1020F3B70C1
:1058500004BF4B787B701718FFF7CABB3523FFF7DF
:1058600053BB5F465446049B9F42F7D2DDE90223B7
:105870009B1A069A1340079AD35C07F8013B039BD7
:10588000013303934B464FF0FF39002B3FF4B0AB8D
:105890009944E8E75F465446FFF773BB009B9A457F
:1058A000F8D254465F4614F8013BAB40083548EA4D
:1058B0000308FFF75DBB14F8013BF6E705F00703AB
:1058C0004FF0000925F0070528FA03F885B3072DE6
:1058D0001BD8009B9C4215D33E9B13F002030CD0B7
:1058E0002923FFF751BA5F465446F5E7009B9A45D6
:1058F000F9D254465F4614F8013BAB40083548EAFC
:105900000308E4E714F8013BF7E75FFA88F3083D82
:105910004FEA1828326909F1010943EA0223B9F173
:10592000030F3361D2D9222300203360FFF771B90E
:10593000009BA34211D83E9B13F00203EAD02A2316
:10594000FFF722BA5F465446F5E7009B9A45F9D225
:1059500054465F4614F8013BDCE714F8013BD9E7F5
:105960005F465446DFE75F465446FFF7F6B911F845
:1059700008EC11F8073CAE4403EB0E0503EB4E03B5
:10598000634411F806CCAC4411F8055C63446544EB
:1059900011F804CC2B44AC4411F8035C6344654417
:1059A00011F802CC2B44AC4411F8015C634465440B
:1059B00003EB050C0B4603F108010733A3EB0B03C4
:1059C0009A42D4D822F0070322F0070E5B4419460E
:1059D000AEEB030901EB0908424513D8A2EB0E0117
:1059E000BF1A724538BF002141F2B05203EB010BE0
:1059F000B5FBF4F304FB1355BCFBF4F304FB13CC2D
:105A0000FFF72DB911F8018B4544AC44E2E705EBF3
:105A10000C45F56100287FF491A83E9BDB077FF5DC
:105A20008DA833699D4218BF6FF00100FFF786B85B
:105A30001CCC04089CCB0408024B5A6902605861D4
:105A40000020704764010024024B5A6912685A61B1
:105A5000704700BF64010024024B9A69C0E900212D
:105A60009861704764010024044A93691968916140
:105A700010B15A6818461047704700BF64010024EF
:105A800038B50446044DAB690BB1A34200D338BD11
:105A90000120FFF7E9FFF6E764010024C460056117
:105AA00046618761C0F81C80C0F82090C0F824A02F
:105AB000C0F828B0C0F82CD080ED0C8B80ED0E9B88
:105AC00080ED10ABC0F808E0FFF7B6BF124D6C696F
:105AD00008B50CB93AF082FB60602046FFF7D0FFB2
